4000652051               101665054   MILTON IVAN CRISOSTOMO SILVA                                                    08-05-1965OMJOSE MIGUEL CARRERA BLOCK 597                                                   DPTO 33 VILLA CENTENARIO 1 DPTO 33 VILLA CENTENARIO 1                           COLINA                                  COLINA                                       @                                          981791013       0               981791013       985680821       985680821       885680821       228600174      -884005          5425001-08-202215105          0 2444     01-07-2022N910                               0000000000000000000016-06-2020  168710117-11-2018              0  0  1R16-11-2018         203173          REAGCO       398   276     0    0    026400    0    0    0    0    0    0    1    0    0    1    0 15-06-2020              000000000000000000000  0        0        0  778        00000000000        0                  00000000000        0                  00000000000        0                  00000000000        0                  00000000000        0          S200    FCM0    VISAF666NQ61REAGCNP6N3101        0   0   0   0   0   4   0   10      5701-07-202227-09-201803-06-2022  0                                                                              S         S         S         S         S         S                                                                     01-01-190001-01-190001-01-190001-01-190001-01-190001-01-190001-01-190001-01-190001-01-190001-01-190001-01-190001-01-190001-01-1900                                                            
4000657929               17967811K   LORENA DEL ROSARIO SAAVEDRA PEREIRA                                             30-09-1991OFarmando pinto 33                                                                PISOS 4-5-6 villa los poetas porongo                                                                                                                                 loreasaavedra2010@hotmail.com              985767740       0               985767740                                       971675129       991414083            1          2070504-07-2022 1867          0 0444     01-07-2022N910                               0000000000000000000002-10-2018   14491026-04-2019              0  0  1R25-04-2019         372744          REAGCO       398   276     0    0    344100    0    0    0    0    0    0    1    0    0    1    0 01-10-2018              000000000000000000000  0        0        0 1401        00000000000        0                  00000000000        0                  00000000000        0                  00000000000        0                  00000000000        0          S200    1001    VISAF333    REAGCNP6N3151        0   0   0   0   0   4   0   10      3101-07-2022000000000016-06-2022  0                                                                              S         S         S                   S         S                                                                     01-01-190001-01-190001-01-190001-01-190001-01-190001-01-190001-01-190001-01-190001-01-190001-01-190001-01-190001-01-190001-01-1900                                                            
4000659841               130814999   ZILA YASNA GUERRERO RIQUELME                                                    15-01-1976OFSARGENTO ALDEA 100                                                              LA LIGUA                                                                        LA LIGUA                                LA LIGUA                           2030000   @                                          971859555       0               971859555                                                                      -753458          1800028-07-202215620          0 4444     01-07-2022RR84                               0000000000000000000016-12-2019  122030425-10-2021              0  1 10R25-10-2021          13000          REAGSTS8     398   398     0    0    012750    0    0    0    0    0    0    0    0    0    0    0 15-12-2019              000000000000000000000  0        0        0  961        00000000000        0                  00000000000        0                  00000000000        0                  00000000000        0                  00000000000        0          S120    1001    VISAF666    REAGCRP6RR841        0   0   0   0   0   2   0   10      4615-07-202219-05-201816-07-2022  0                                                                              S         S         S                                                                                                   01-01-190001-01-190001-01-190001-01-190001-01-190001-01-190001-01-190001-01-190001-01-190001-01-190001-01-190001-01-190001-01-1900                                                            
4002880580               268545824   CARLOS ALBERTO MANZANILLA MICHELENA                                             31-08-1970OMLAGO ROSSELOT 1406                                                              AVENIDA LAS PARCELAS AVENIDA LAS PARCELAS                                       PENALOLEN                               PENALOLEN                                    carlosmanz1970@gmail.com                   976268326       0               976268326       976268326       976268326                                      -149310              00000000000 559           0 0444     01-07-2022N910                               0000000000000000000006-05-2020   22046504-06-2021              0  0  1R02-06-2021          40000          REAGCO       398   276     0    0    416170    0    0    0    0    0    0    1    0    0    1    0 05-05-2020              000000000000000000000  0        0        0  819        00000000000        0                  00000000000        0                  00000000000        0                  00000000000        0                  00000000000        0          S200            VISAF444NQ61REAGCNP9N3101        0   0   0   0   0   3   0   10      5201-07-2022000000000004-06-2022  0                                                                              S         S         S         S                                                                                         01-01-190001-01-190001-01-190001-01-190001-01-190001-01-190001-01-190001-01-190001-01-190001-01-190001-01-190001-01-190001-01-1900                                                            
4001274366               167396925   ORLANDO ISAIAS FARIAS VERDEJO                                                   16-10-1987OMTEREZA DE CALCUTA 4 ORIENTE 1607                                                                                                                                PUENTE ALTO                             PUENTE ALTO                                  @                                          922052646       0               922052646       958537440       958537440                                      -234973          4000014-03-2022 5500          0 4444     01-07-2022RR66                               0000000000000000000006-09-2019   32615514-03-2022              0  2  2P14-03-2022          20000          REAGCO       398   276     0    0    536450    0    0    0    0    0    0    0    0    0    0    0 05-09-2019              000000000000000000000  0        0        0 1062        00000000000        0                  00000000000        0                  00000000000        0                  00000000000        0                  00000000000        0          S200    1001    VISAF444NQ61REAGCRP9RR661        0   0   0   0   0   3   0   10      3501-07-202210-04-201929-06-2022  0                                                                              S         S         S         S                                                                                         01-01-190001-01-190001-01-190001-01-190001-01-190001-01-190001-01-190001-01-190001-01-190001-01-190001-01-190001-01-190001-01-1900                                                            
4001841511               188192122   NICOLE ANDREA LOPEZ CAIMAPO                                                     31-12-1994OFALTO CISNES  399                                                                COIHAIQUE  11                                                                                                                                                        @                                          974139115       0               974139115                                                                       -78495              00000000000 595           0 4444     01-07-2022RR84                               0000000000000000000006-05-2020   49917625-06-2022              0  0  4P23-06-2022          11893          REAGCO       398   276     0    2    215650    0    0    0    0    0    0    0    0    0    0    0 05-05-2020              000000000000000000000  0        0        0  819        00000000000        0                  00000000000        0                  00000000000        0                  00000000000        0                  00000000000        0          S120            VISAF444NQ61REAGCRP9RR841        0   0   0   0   0   1   0   10      2701-07-202209-09-201930-06-2022  0                                                                              S         S         S                                                                                                   01-01-190001-01-190001-01-190001-01-190001-01-190001-01-190001-01-190001-01-190001-01-190001-01-190001-01-190001-01-190001-01-1900                                                            
4001193255               225132720   HEINER  BACILIO GAMBOA                                                          18-04-1980OMPASAJE CARNAK 16508 16508                                                                                                                                       MAIPU                                   MAIPU                                        heiner.bacilio@inacapmail.cl               997939660       0               997939660                                       979364243       229066533        -3554         16500019-07-20221045           0 0444     01-07-2022N310                               0000000000000000000011-01-2020   98020026-05-2019              0  0  1R24-05-2019         122283          REAGCO       398     0     0    1    216300    0    0    0    0    0    0    0    0    0    0    0 10-01-2020              000000000000000000000  0        0        0  935        00000000000        0                  00000000000        0                  00000000000        0                  00000000000        0                  00000000000        0          S200    1001    VISAF555    REAGCNP6N3101        0   0   0   0   0   3   0   10      4201-07-202224-05-201929-06-2022  0950734352    297039541                                                        S         S         S                   S         S         S         S                                                 01-01-190001-01-190001-01-190001-01-190001-01-190001-01-190001-01-190001-01-190001-01-190001-01-190001-01-190001-01-190001-01-1900                                                            
4000010789               8456155K    MARICEL ALEJANDRA GODOY MANRIQUEZ                                               30-04-1973OFCARLOS TORIBIO 1632                                                             CARLOS TORIBIO ROBINET                                                          INDEPENDENCIA                           INDEPENDENCIA                      6530000   mary30abril@hotmail.com                    945078338       0               945078338                                                                      -442140          2000027-07-20222061           0 4444     01-07-2022COR5                               0000000000000000000021-12-2019   75854530-08-2021              0  5  2C27-08-2021           2222          REAGCO       398   398     0    0   1016060    0    0    0    0    0    0    0    0    0    0    0 20-12-2019              000000000000000000000  0        0        0  956        00000000000        0                  00000000000        0                  00000000000        0                  00000000000        0                  00000000000        0          S120    1001PRICVISAF555    REAGCRP6RR841        0   0   0   0   0   2   0   10      4901-07-202225-01-201830-06-2022  0                                                                              S         S         S                                                                                                   01-01-190001-01-190001-01-190001-01-190001-01-190001-01-190001-01-190001-01-190001-01-190001-01-190001-01-190001-01-190001-01-1900                                                            
4000685419               180984461   JANE YADRANKA CONTRERAS SALGADO                                                 28-07-1992OFSANTA ANA 879                                                                                                                                                   PUDAHUEL                                PUDAHUEL                                     janecontreras.s@hotmail.com                962050601       0               962050601       962050601       962050601       226443360       226752754       -88555              00000000000 1500          0 0444     01-07-2022COR3                               0000000000000000000002-01-2019   23230305-05-2022              0  0  3P04-05-2022          14930          REAGCO       398   398     0    0    016330    0    0    0    0    0    0    0    0    0    0    0 01-01-2019              000000000000000000000  0        0        0 1309        00000000000        0                  00000000000        0                  00000000000        0                  00000000000        0                  00000000000        0          S120    1001    VISAF444    REAGCNP6N3151        0   0   0   0   0   4   0   10      3001-07-202213-07-201830-06-2022  0                                                                              S         S         S         S         S         S                                                                     01-01-190001-01-190001-01-190001-01-190001-01-190001-01-190001-01-190001-01-190001-01-190001-01-190001-01-190001-01-190001-01-1900                                                            
4000807032               117957497   RAFAEL OSVALDO BELTRAN RIVERA                                                   07-07-1970OMAVENIDA C 4483                                                                  POB STA ROSA POB STA ROSA                                                       ALTO HOSPICIO                           ALTO HOSPICIO                                rafa12beltran@gmail.com                    995376544       0               995376544       995376545       995376545                                        -3741          6500024-06-20221016           0 3444     01-07-2022N310                               0000000000000000000011-10-2020    5855525-06-2022          64946  4 18P23-06-2022          19468          REAGCO       398   276     0    0    111070    0    0    0    0    0    0    0    0    0    0    0 10-10-2020              000000000000000000000  0        0        0  661        00000000000        0                  00000000000        0                  00000000000        0                  00000000000        0                  00000000000        0          C331            VISAF222NQ61REAGCNP6N3101        0   0   0   0   0   4   0   10      5201-07-202216-04-201929-06-2022  0                                                                              S         S         S         S                                                                                         01-01-190001-01-190001-01-190001-01-190001-01-190001-01-190001-01-190001-01-190001-01-190001-01-190001-01-190001-01-190001-01-1900                                                            
4000932572               70762307    HILDA DEL ROSARIO SANTOS RODAS                                                  17-06-1950OFarcangel 1586                                                                   PISOS 4-5-6 VILLA CANAEMPU                                                      SAN MIGUEL                              SAN MIGUEL                                   amapolita_1950@hotmail.com@hotmail.com     975821218       0               975821218       988322102       988322102       226145770       996507015       -10856          3000004-07-2022 161           0 1444     01-07-2022N910                               0000000000000000000002-08-2020   49621125-09-2021              0  1  0C22-09-2021          28769          REAGCO       398   276     0    0    016230    0    0    0    0    0    0    1    0    0    1    0 01-08-2020              000000000000000000000  0        0        0  731        00000000000        0                  00000000000        0                  00000000000        0                  00000000000        0                  00000000000        0          NOAS            VISAF444NQ61REAGCNP6N3101        0   0   0   2   0   3   0   10      7201-07-2022000000000008-06-2022  0225516971    225556021                                                        S         S         S         S         S         S         S         S                                                 01-01-190001-01-190001-01-190001-01-190001-01-190001-01-190001-01-190001-01-190001-01-190001-01-190001-01-190001-01-190001-01-1900                                                            
4001329666               93987837    OMAR ARTEMIO MARTINEZ SOTO                                                      01-07-1963OMBALMACEDA 040                                                                   SAN BDO  SAN BDO                                                                SAN BERNARDO                            SAN BERNARDO                                 omar.martinez@gmail.com                    959092752       0               959092752       999326710       999326710       994503477       228242401      -592338          5956220-04-2022 5116          0 1444     01-07-2022N910                               0000000000000000000006-04-2019   87356422-04-2022              0  0  1P20-04-2022          19900          REAGCO       398     0     0    0    046500    0    0    0    0    0    0    1    0    0    1    0 05-04-2019              000000000000000000000  0        0        0 1215        00000000000        0                  00000000000        0                  00000000000        0                  00000000000        0                  00000000000        0          S120    RECL    VISAF555    REAGCNP9N3101        0   0   0   0   0   3   0   10      5901-07-202216-03-201905-06-2022  0990746521                                                                     S         S         S         S         S         S         S                                                           01-01-190001-01-190001-01-190001-01-190001-01-190001-01-190001-01-190001-01-190001-01-190001-01-190001-01-190001-01-190001-01-1900                                                            
4000028317               194818475   DANIELA FRANCISCA DEL C SAAVEDRA GUERRA                                         16-07-1996OFFRAY ANDRES 19                                                                  PASAJE BAJO LA MUNICIPALIDAD L PASAJE BAJO LA MUNICIPALIDAD L                   LA REINA                                LA REINA                                     @                                          945727818       0               945727818                                                                            1              00000000000 5166          0 4444     01-07-2022GEN3                               0000000000000000000006-09-2017   34000011-06-2022              0  0  4P10-06-2022          31322          REAGCO       398   276     0    2    116150    0    0    0    0    0    0    0    0    0    0    0 05-09-2017              000000000000000000000  0        0        0 1792        00000000000        0                  00000000000        0                  00000000000        0                  00000000000        0                  00000000000        0          S131    1001PRICVISAF444NQ61REAGCRP6GEN31        0   0   0   0   0   0   0   10      2601-07-202214-05-202129-06-2022  0                                                                              S         S         S                                                                                                   01-01-190001-01-190001-01-190001-01-190001-01-190001-01-190001-01-190001-01-190001-01-190001-01-190001-01-190001-01-190001-01-1900                                                            
4000407706               143921794   NANCY JOHANNA ACEITUNO ECHEVERRIA                                               06-08-1978OFMAR CASPIO 4910                                                                 POB PENUELAS 2 POB PENUELAS 2                                                   HUALPEN                                 HUALPEN                            4601348   @                                          964886821       0               964886821                                                                            1              0000000000025663          0 4444     01-07-2022N910                               0000000000000000000026-01-2021   15926618-03-2022              0  4 12P17-03-2022          15925          REAGSTS8     398   398     0    0   1281120    0    0    0    0    0    0    1    0    0    1    0 25-01-2021              000000000000000000000  0        0        0  554        00000000000        0                  00000000000        0                  00000000000        0                  00000000000        0                  00000000000        0          NOAS            VISAF333NQ61REAGCRP9RR601        0   0   0   0   0   3   0   10      4421-07-202229-08-201822-07-2022  0                                                                              S         S         S                                                                                                   01-01-190001-01-190001-01-190001-01-190001-01-190001-01-190001-01-190001-01-190001-01-190001-01-190001-01-190001-01-190001-01-1900                                                            
4000410160               251953694   VIVIANA  MACONO JUSTINIANO                                                      06-07-1977OFAVENIDA LAS PERDICES 4160                                                                                                                                       PENALOLEN                               PENALOLEN                                    vivianamacoprendido6@icloud.com            968960644       0               968960644                                       968960644                       -47522              0000000000010604          0 3444     01-07-2022N310                               0000000000000000000011-01-2020   97964404-06-2022              0  0  0P03-06-2022          57600          REAGSTS8     398   276     0    0    016170    0    0    0    0    0    0    0    0    0    0    0 10-01-2020              000000000000000000000  0        0        0  935        00000000000        0                  00000000000        0                  00000000000        0                  00000000000        0                  00000000000        0          S131    1001    VISAF555    REAGCNP6N3101        0   0   0   0   0   3   0   10      4508-07-202212-01-201909-07-2022  0                                                                              S         S         S                   S                                                                               01-01-190001-01-190001-01-190001-01-190001-01-190001-01-190001-01-190001-01-190001-01-190001-01-190001-01-190001-01-190001-01-1900                                                            
4000184035               98208003    MANUEL ARTURO SANTIS ROJAS                                                      02-12-1963OMLAS TARTANAS 1054                                                               VILLA ITALIA VILLA ITALIA                                                       SAN ANTONIO                             SAN ANTONIO                                  SANTISRO@GMAIL.COM                         994467714       0               994467714       950032440       950032440       972115845       950032440      -300576              000000000002048           0 4444     01-07-2022RR84                               0000000000000000000021-10-2018   78319610-06-2022              0  0 10P10-06-2022          19108          REAGCO       398   398     0    0    063200    0    0    0    0    0    0    0    0    0    0    0 20-10-2018              000000000000000000000  0        0        0 1382        00000000000        0                  00000000000        0                  00000000000        0                  00000000000        0                  00000000000        0          C300    1001    G030F555    REAGCRP6RR841        0   0   0   0   0   4   0   10      5801-07-202224-07-201710-06-2022  0352581199                                                                     S         S         S         S         S         S         S                                                           01-01-190001-01-190001-01-190001-01-190001-01-190001-01-190001-01-190001-01-190001-01-190001-01-190001-01-190001-01-190001-01-1900                                                            
4000818419               13478492K   MARIELA ALEJANDRA MOLINA BUSTOS                                                 10-06-1978OFfresno 6788                                                                     PISOS 4-5-6 villa tobalaba                                                      PENALOLEN                               PENALOLEN                                    MMOLINAB@SODIMAC.CL                        962354309       0               962354309       222786961       222786961                                      -441437          1970830-05-2022 1166          0 3444     01-07-2022COR5                               0000000000000000000002-04-2020   61743223-12-2020              0  3 16R22-12-2020         739430          REAGSTS8     398   276     0    0    616170    0    0    0    0    0    0    0    0    0    0    0 01-04-2020              000000000000000000000  0        0        0  853        00000000000        0                  00000000000        0                  00000000000        0                  00000000000        0                  00000000000        0          S200    1001    VISAF555NQ61REAGCNP6N3001        0   0   0   0   0   3   0   10      4415-07-202210-01-201916-07-2022  0                                                                              S         S         S         S                                                                                         01-01-190001-01-190001-01-190001-01-190001-01-190001-01-190001-01-190001-01-190001-01-190001-01-190001-01-190001-01-190001-01-1900                                                            
4000113803               195045984   MANUELA ANDREA PARRA ESQUIVEL                                                   16-09-1997OFBALMACEDA 1320                                                                                                                                                  TALAGANTE                               TALAGANTE                                    @                                          976418322       0               976418322                                                                       -18007              00000000000 576           0 0444     01-07-2022N910                               0000000000000000000006-11-2017    8486716-06-2022              0  0  2P15-06-2022          20120          REAGCO       398   276     0    0    166700    0    0    0    0    0    0    1    0    0    1    0 05-11-2017              000000000000000000000  0        0        0 1731        00000000000        0                  00000000000        0                  00000000000        0                  00000000000        0                  00000000000        0          S200    1001    G030F222    REAGCNP6N3151        0   0   0   0   0   4   0   10      2501-07-202203-05-201930-06-2022  0                                                                              S         S         S                                                                                                   01-01-190001-01-190001-01-190001-01-190001-01-190001-01-190001-01-190001-01-190001-01-190001-01-190001-01-190001-01-190001-01-1900                                                            
4002817827               80787626    CARLOS DAVID CUEVAS SALAS                                                       29-02-1960OMSUBIDA LA CAVA 8                                                                CASA 8 EL SOL , 5 CASA 8 EL SOL                                                 QUILPUE                                 QUILPUE                            2430000   CARLOSDAVIDCUEVASSALAS@GMAIL.COM           958914722       0               958914722                                                                       -40690         13800008-07-2022 5845          0 3444     01-07-2022N910                               0000000000000000000006-09-2020   13010608-07-2022              0  0  6P08-07-2022          23000          REAGCTPP     398   276     0    0   3153140    0    0    0    0    0    0    1    0    0    1    0 05-09-2020              000000000000000000000  0        0        0  696        00000000000        0                  00000000000        0                  00000000000        0                  00000000000        0                  00000000000        0          S131            VISAF333NQ61REAGCNP9N3101        0   0   0   0   0   0   0   10      6229-07-202227-01-202008-07-2022  0                                                                              S         S         S                                                                                                   01-01-190001-01-190001-01-190001-01-190001-01-190001-01-190001-01-190001-01-190001-01-190001-01-190001-01-190001-01-190001-01-1900                                                            
4000052071               124998786   LORENA DEL CARMEN SEPULVEDA BERRIOS                                             29-01-1973OFNICOLAS DAVILA 4354                                                             RINCONADA SAN FERNANDO RINCONADA SAN FERNANDO                                   COPIAPO                                 COPIAPO                                      LORENA2920@GMAIL.COM                       994256647       0               994256647       989974299       989974299       994403384       974698467      -317993          2000008-07-20222031           0 4444     01-07-2022RR66                               0000000000000000000021-02-2018   36801808-12-2018              0  1  1R05-12-2018          46000          REAGCO       398   398     0    0    022400    0    0    0    0    0    0    0    0    0    0    0 20-02-2018              000000000000000000000  0        0        0 1624        00000000000        0                  00000000000        0                  00000000000        0                  00000000000        0                  00000000000        0          S120    1001    G030F444    REAGCRP6RR661        0   0   0   0   0   4   0   10      4901-07-2022000000000015-06-2022  0996263270    988874299                                                        S         S         S         S         S         S         S         S                                                 01-01-190001-01-190001-01-190001-01-190001-01-190001-01-190001-01-190001-01-190001-01-190001-01-190001-01-190001-01-190001-01-1900                                                            
4001408916               86325845    JUAN DE DIOS LLANCALEO MARTINEZ                                                 28-01-1959OMPJE LO PRUNO BLOCK 14 104                                                       ALGARROBO 3 ALGARROBO 3                                                         RANCAGUA                                RANCAGUA                           2840000   @                                          986012202       0               986012202       947415085       947415085                                       -75436              000000000001575           0 0444     01-07-2022N910                               0000000000000000000016-05-2019   13132320-07-2022              0  0  0P15-07-2022          18604          REAGCTPP     398   276     0    0   1313350    0    0    0    0    0    0    1    0    0    1    0 15-05-2019              000000000000000000000  0        0        0 1175        00000000000        0                  00000000000        0                  00000000000        0                  00000000000        0                  00000000000        0          S121    1001    VISAF333    REAGCNP9N3101        0   0   0   0   0   0   0   10      6329-07-202216-04-201920-07-2022  0                                                                              S         S         S         S                                                                                         01-01-190001-01-190001-01-190001-01-190001-01-190001-01-190001-01-190001-01-190001-01-190001-01-190001-01-190001-01-190001-01-1900                                                            
4000713533               25966439K   LUIS ALBERTO MARULANDA CRUZ                                                     09-05-1984OMPADRE ALONSO DE OVALLE 1650                                                     DEPTO 28                                                                        SANTIAGO                                SANTIAGO                           8330301   @                                          963883564       0               963883564       946457280       946457280                                      -125803              00000000000 561           0 4444     01-07-2022COR3                               0000000000000000000006-06-2019   20296311-06-2022              0  0  1P10-06-2022          19855          REAGSMZ0     398   276     0    0    016050    0    0    0    0    0    0    0    0    0    0    0 05-06-2019              000000000000000000000  0        0        0 1154        00000000000        0                  00000000000        0                  00000000000        0                  00000000000        0                  00000000000        0          S120    1001    VISAF444    REAGCRP6RR841        0   0   0   0   0   4   0   10      3808-07-2022000000000008-07-2022  0                                                                              S         S         S         S                                                                                         01-01-190001-01-190001-01-190001-01-190001-01-190001-01-190001-01-190001-01-190001-01-190001-01-190001-01-190001-01-190001-01-1900                                                            
4000045258               157861832   GERMAN FRANCISCO CARRASCO LOPEZ                                                 05-01-1984OMCALLE CABO DE HORNOS 2209                                                                                                                                       PUENTE ALTO                             PUENTE ALTO                                  GERMANCARRASCO9985@GMAIL.COM               954199938       0               954199938       965825767       965825767                                      -574229          2800015-07-202225613          0 4444     01-07-2022N910                               0000000000000000000026-11-2018  137887826-10-2020              0  0  1R24-10-2020        1966878          REAGCO       398   398     0    0    036450    0    0    0    0    0    0    1    0    0    1    0 25-11-2018              000000000000000000000  0        0        0 1346        00000000000        0                  00000000000        0                  00000000000        0                  00000000000        0                  00000000000        0          S120    1001PRICVISAF666    REAGCRP6RR661        0   0   0   0   0   3   0   10      3801-07-202224-10-201703-06-2022  0                                                                              S         S         S         S                                                                                         01-01-190001-01-190001-01-190001-01-190001-01-190001-01-190001-01-190001-01-190001-01-190001-01-190001-01-190001-01-190001-01-1900                                                            
4000878065               249442763   LINDSAY SORAYA MILAD YPI PENA YLILLO                                            10-07-1992OFSAN MARTIN 3522                                                                 AV PRAT POBLACION OHIGGINS AV PRAT POBLACION OHIGGINS                           CALAMA                                  CALAMA                                       ldjk1990@gmail.com                         996325741       0               972875673       972875673       972875673       984465242       935388058      -362188          2000006-06-20222024           0 0444     01-07-2022COR5                               0000000000000000000021-10-2018   60125224-04-2019              0  0  2R23-04-2019         498975          REAGSTS0     398   398     0    0    522250    0    0    0    0    0    0    0    0    0    0    0 20-10-2018              000000000000000000000  0        0        0 1382        00000000000        0                  00000000000        0                  00000000000        0                  00000000000        0                  00000000000        0          S200    1001    VISAF555    REAGCNP9N3151        0   0   0   0   0   2   0   10      3015-07-202227-10-201816-07-2022  0552320401    996325741                                                        S         S         S         S         S         S         S         S                                                 01-01-190001-01-190001-01-190001-01-190001-01-190001-01-190001-01-190001-01-190001-01-190001-01-190001-01-190001-01-190001-01-1900                                                            
4001308101               141147277   MARCELO ALEXIS SAAVEDRA CUELLAR                                                 18-04-1981OMSALITRERA BELLAVISTA 2193                                                       EL PALOMAR EL PALOMAR                                                           COPIAPO                                 COPIAPO                                      m@gmail.com                                522240711       0               979134014       957807097       957807097       522240711                      -183294          1600025-07-2022 131           0 2444     01-07-2022N910                               0000000000000000000002-10-2019   61194525-10-2021              0  0  3R25-10-2021              0          REAGDVD7     398   276     0    0    322400    0    0    0    0    0    0    1    0    0    1    0 01-10-2019              000000000000000000000  0        0        0 1036        00000000000        0                  00000000000        0                  00000000000        0                  00000000000        0                  00000000000        0          S120    1001    VISAF555NQ61REAGCNP6N3101        0   0   0   0   0   4   0   10      4114-07-202202-04-201915-07-2022  0                                                                              S         S         S         S         S                                                                               01-01-190001-01-190001-01-190001-01-190001-01-190001-01-190001-01-190001-01-190001-01-190001-01-190001-01-190001-01-190001-01-1900                                                            
4000028664               195789762   JONATHAN EDGARDO SARAVIA ASTETE                                                 11-03-1997OMLORD CROCHANNE 223                                                              CANETE CANETE                                                                   CANETE                                  CANETE                             4390000   @                                          934945758       0               934945758       974603944       974603944       412613436       974603944      -676682          2888521-07-202210254          0 0444     01-07-2022COR6                               0000000000000000000011-10-2018  135761606-06-2020              0  0  1R03-06-2020              1          REAGCO       398   276     0    0    044690    0    0    0    0    0    0    0    0    0    0    0 10-10-2018              000000000000000000000  0        0        0 1392        00000000000        0                  00000000000        0                  00000000000        0                  00000000000        0                  00000000000        0          S200    1001    VISAF666    REAGCNP6N3151        0   0   0   0   0   3   0   10      2501-07-202203-06-202029-06-2022  0974603994    412566698                                                        S         S         S         S         S         S         S         S                                                 01-01-190001-01-190001-01-190001-01-190001-01-190001-01-190001-01-190001-01-190001-01-190001-01-190001-01-190001-01-190001-01-1900                                                            
4001257205               120972898   DAVID ALEJANDRO MONTECINOS SEPULVEDA                                            02-07-1971OMAVENIDA CARRASCAL 6254                                                          DEPARTAMENTO 1143 TORRE 11 DEPARTAMENTO 1143 TORRE 11                           QUINTA NORMAL                           QUINTA NORMAL                                @                                          974248441       0               974248441       227731737       227731737                                      -426909          5720001-08-20221061           0 1444     01-07-2022N910                               0000000000000000000011-02-2020  302567730-12-2020              0  0  5R29-12-2020          10000          REAGCO       398   276     0    0    016310    0    0    0    0    0    0    1    0    0    1    0 10-02-2020              000000000000000000000  0        0        0  904        00000000000        0                  00000000000        0                  00000000000        0                  00000000000        0                  00000000000        0          S120    1001    VISAF666NQ61REAGCNP6N3101        0   0   0   0   0   2   0   10      5101-07-202212-03-201903-06-2022  0                                                                              S         S         S         S                                                                                         01-01-190001-01-190001-01-190001-01-190001-01-190001-01-190001-01-190001-01-190001-01-190001-01-190001-01-190001-01-190001-01-1900                                                            
4000165993               18016202K   JOSELYN ROCIO REICAHUIN REICAHUIN                                               03-08-1991OFPASAJE CINCO 35                                                                 VISTA HERMOSA VISTA HERMOSA                                                     ANCUD                                   ANCUD                              5710169   joshyta04@gmail.com                        999617622       0               999617622                                                                      -275052              00000000000 592           0 3444     01-07-2022N910                               0000000000000000000006-05-2020   82822225-05-2022              0  1 11P19-05-2022          16572          REAGSTS0     398   398     0    0    145460    0    0    0    0    0    0    1    0    0    1    0 05-05-2020              000000000000000000000  0        0        0  819        00000000000        0                  00000000000        0                  00000000000        0                  00000000000        0                  00000000000        0          S120    1001    VISAF555    REAGCNP6N3151        0   0   0   0   0   3   0   10      3121-07-202207-01-201922-07-2022  0                                                                              S         S         S                                                                                                   01-01-190001-01-190001-01-190001-01-190001-01-190001-01-190001-01-190001-01-190001-01-190001-01-190001-01-190001-01-190001-01-1900                                                            
4001068168               94193257    LUIS ARTURO MATURANA PASTEN                                                     20-10-1962OMLA SOMBRA SITIO 11                                                              ROMERAL ROMERAL                                                                 HIJUELAS                                HIJUELAS                                     notiene@gmail.com                          989697604       0                               989697604       989697604                       995815158      -105578          6000007-07-202215627          0 4444     01-07-2022N910                               0000000000000000000016-02-2020  210756514-08-2021              0  1 14R14-08-2021         150000          REAGDVD9     398   276     0    0   2243040    0    0    0    0    0    0    1    0    0    1    0 15-02-2020              000000000000000000000  0        0        0  899        00000000000        0                  00000000000        0                  00000000000        0                  00000000000        0                  00000000000        0          S120    1001    VISAF666NQ61REAGCRP6RR661        0   0   0   0   0   2   0   10      6008-07-202219-11-201809-07-2022  0988493603                                                                     S                             S                   S         S                                                           01-01-190001-01-190001-01-190001-01-190001-01-190001-01-190001-01-190001-01-190001-01-190001-01-190001-01-190001-01-190001-01-1900                                                            
4000625489               95126642    MARGARITA ESTER OJEDA CASTRO                                                    22-08-1964OFGUACOLDA 3364                                                                   LAS CANCHAS LAS CANCHAS                                                         TALCAHUANO                              TALCAHUANO                                   ojedamargarita64@gmail.com                 990536368       0               978593318       978593318       978593318       412274864                      -654386          1000007-07-202220259          0 3444     01-07-2022COR6                               0000000000000000000021-08-2018  112381904-07-2019              0  0  1R01-07-2019          10000          REAGAX0      398   276     0    0    234560    0    0    0    0    0    0    0    0    0    0    0 20-08-2018              000000000000000000000  0        0        0 1443        00000000000        0                  00000000000        0                  00000000000        0                  00000000000        0                  00000000000        0          S200    1001    VISAF666    REAGCNP9N3101        0   0   0   0   0   3   0   10      5801-08-2022000000000001-08-2022  0                                                                              S         S         S         S         S                                                                               01-01-190001-01-190001-01-190001-01-190001-01-190001-01-190001-01-190001-01-190001-01-190001-01-190001-01-190001-01-190001-01-1900                                                            
4000241717               123971205   ANA MARIA VERGARA BARRAZA                                                       16-06-1973OFPJE QUILPUE 278                                                                 TIERRAS BLANCAS TIERRAS BLANCAS                                                 COQUIMBO                                COQUIMBO                                     @                                          984770728       0               984770728       950348203       950348203       984770728                      -297805          4693309-07-202210165          0 4444     01-07-2022RR84                               0000000000000000000011-06-2020  196422618-05-2021              0  2  7C14-05-2021          46933          REAGCO       398   398     0    0    012520    0    0    0    0    0    0    0    0    0    0    0 10-06-2020              000000000000000000000  0        0        0  783        00000000000        0                  00000000000        0                  00000000000        0                  00000000000        0                  00000000000        0          S120    1001    VISAF666NQ61REAGCRP6RR841        0   0   0   0   0   3   0   10      4901-07-202220-09-201803-06-2022  0512241551    512243513                                                        S         S         S         S         S                   S         S                                                 01-01-190001-01-190001-01-190001-01-190001-01-190001-01-190001-01-190001-01-190001-01-190001-01-190001-01-190001-01-190001-01-1900                                                            
4000244090               176010304   MAGNOLIA DEL CARMEN ORTIZ MUNOZ                                                 01-11-1990OFPASAJE TOLPAN 669                                                               VILLA LOS NARANJOS VILLA LOS NARANJOS                                           PUENTE ALTO                             PUENTE ALTO                        7710000   inuortiz@hotmail.com                       981339804       0               981339804                                                                      -331878         18000005-07-2021 5613          0 1444     01-07-2022N315                               0000000000000000000006-06-2019   54498805-07-2021              0  3  4C05-07-2021          30000          REAGSTS8     398   398     0    0    436450    0    0    0    0    0    0    0    0    0    0    0 05-06-2019              000000000000000000000  0        0        0 1154        00000000000        0                  00000000000        0                  00000000000        0                  00000000000        0                  00000000000        0          S200    1001    VISAF555    REAGCNP6N3151        0   0   0   0   0   3   0   10      3115-07-202208-01-201816-07-2022  0281339804                                                                     S         S         S                                       S                                                           01-01-190001-01-190001-01-190001-01-190001-01-190001-01-190001-01-190001-01-190001-01-190001-01-190001-01-190001-01-190001-01-1900                                                            
4001328598               239106269   YANDRY EDUARDO MEJIA CANIZARES                                                  15-09-1979OMEL TRANQUE 1264                                                                 VILLA SANTA CATALINA VILLA SANTA CATALINA                                       PUDAHUEL                                PUDAHUEL                                     @                                          948847904       0               948847904                                                                      -125519              00000000000 5612          0 0444     01-07-2022N910                               0000000000000000000006-04-2019   20773408-03-2022              0  0  0P05-03-2022          14136          REAGDVD7     398   276     0    0    016330    0    0    0    0    0    0    1    0    0    1    0 05-04-2019              000000000000000000000  0        0        0 1215        00000000000        0                  00000000000        0                  00000000000        0                  00000000000        0                  00000000000        0          S200    1001    VISAF444    REAGCNP9N3101        0   0   0   0   0   2   0   10      4314-07-202227-03-201915-07-2022  0                                                                              S         S         S                                                                                                   01-01-190001-01-190001-01-190001-01-190001-01-190001-01-190001-01-190001-01-190001-01-190001-01-190001-01-190001-01-190001-01-1900                                                            
4001273129               194494556   NOEMI FRANCISCA PACHECO GALLARDO                                                26-03-1997OFMANUEL OLGUIN 1630                                                              VILLA RENACER VILLA EL CARMEN                                                   SAN FELIPE                              SAN FELIPE                         2170000   noemifrancisca.pache@hotmail.com           999222539       0               999222539       984839905       984839905       973276649       992222539        -5276              000000000001057           0 0444     01-07-2022N910                               0000000000000000000011-06-2019    5000030-05-2022              0  1  0P25-05-2022          23010          REAGSTS0     398   276     0    0    332900    0    0    0    0    0    0    1    0    0    1    0 10-06-2019              000000000000000000000  0        0        0 1149        00000000000        0                  00000000000        0                  00000000000        0                  00000000000        0                  00000000000        0          S121    1001    VISAF111    REAGCNP8N3151        0   0   0   0   0   4   0   10      2522-07-202212-03-201923-07-2022  0                                                                              S         S         S         S         S         S                                                                     01-01-190001-01-190001-01-190001-01-190001-01-190001-01-190001-01-190001-01-190001-01-190001-01-190001-01-190001-01-190001-01-1900                                                            
4000797374               165850521   FRANCISCA JAVIERA MARDONES BIELEFELDT                                           19-10-1989OFPETROHUE S/N                                                                    CAMINO ENSENADA CAMINO ENSENADA                                                 PUERTO VARAS                            PUERTO VARAS                                 @                                          978063470       0               978063470                                                                      -207668          1892122-07-2022 5682          0 3444     01-07-2022COR4                               0000000000000000000006-02-2020   37115917-04-2021              0  0  4R14-04-2021             10          REAGSTS0     398   276     0    0    035360    0    0    0    0    0    0    0    0    0    0    0 05-02-2020              000000000000000000000  0        0        0  909        00000000000        0                  00000000000        0                  00000000000        0                  00000000000        0                  00000000000        0          S200    1001    VISAF444NQ61REAGCNP6N3151        0   0   0   0   0   3   0   10      3315-07-202214-08-201816-07-2022  0                                                                              S         S         S                                                                                                   01-01-190001-01-190001-01-190001-01-190001-01-190001-01-190001-01-190001-01-190001-01-190001-01-190001-01-190001-01-190001-01-1900                                                            
4002677339               71779548    LIDIA DEL CARMEN HUARACAN LEIVA                                                 28-10-1948OFPASAJE DOCE OJO DEL SALADO 73                                                   sector barrio norte sector barrio norte                                         CONCEPCION                              CONCEPCION                                   NOTIENE@GMAL.COM                           991353244       0               991353244       995085863       995085863                                      -223034          7600019-03-2022 5663          0 1444     01-07-2022N310                               0000000000000000000006-03-2020   34327719-03-2022              0  0  2P16-03-2022          15110          REAGCII1     398   276     0    0    934550    0    0    0    0    0    0    0    0    0    0    0 05-03-2020              000000000000000000000  0        0        0  880        00000000000        0                  00000000000        0                  00000000000        0                  00000000000        0                  00000000000        0          S120            VISAF444NQ61REAGCNP9N3101        0   0   0   0   0   3   0   10      7415-07-202209-08-201916-07-2022  0                                                                              S         S         S         S                                                                                         01-01-190001-01-190001-01-190001-01-190001-01-190001-01-190001-01-190001-01-190001-01-190001-01-190001-01-190001-01-190001-01-1900                                                            
4000121596               18244880K   TAMARA BELEN ARIAS SEPULVEDA                                                    02-08-1992OFSAN PEDRO 3511                                                                  DeP 13 EL CALEUCHE DeP 13 EL CALEUCHE                                           PUENTE ALTO                             PUENTE ALTO                        8164032   TAMARABELENARIASSEPULVEDA@GMAIL.COM        971833818       0               995868535       973615946       973615946       971833818       225456170      -401209          3220031-05-2022 5613          0 1444     01-07-2022N315                               0000000000000000000006-06-2018  105087227-05-2021              0  2  1C26-05-2021          31175          REAGSTS8     398   276     0    0    436450    0    0    0    0    0    0    0    0    0    0    0 05-06-2018              000000000000000000000  0        0        0 1519        00000000000        0                  00000000000        0                  00000000000        0                  00000000000        0                  00000000000        0          S120    1001    VISAF666    REAGCNP6N3151        0   0   0   0   0   3   0   10      3015-07-202225-03-202116-07-2022  0                                                                              S         S         S         S         S         S                                                                     01-01-190001-01-190001-01-190001-01-190001-01-190001-01-190001-01-190001-01-190001-01-190001-01-190001-01-190001-01-190001-01-1900                                                            
4000204922               187723310   GUILLERMO ANDRES TORRES SEPULVEDA                                               12-09-1994OMPASAJE 3 17                                                                     Avenida Coihueco Avenida Coihueco                                               CHILLAN                                 CHILLAN                            3800000   torres.guillermoanmd@gmail.com             422261665       0               948520697       942417439       942417439       948520687       422261665      -248715          5400021-04-2022 5661          0 0444     01-07-2022N910                               0000000000000000000006-03-2018   55621411-08-2018              0  0  3R09-08-2018          10000          REAGSTS4     398   398     0    0    614150    0    0    0    0    0    0    1    0    0    1    0 05-03-2018              000000000000000000000  0        0        0 1611        00000000000        0                  00000000000        0                  00000000000        0                  00000000000        0                  00000000000        0          S120    1001    D030F555    REAGCNP9N3151        0   0   0   0   0   2   0   10      2821-07-202207-03-201822-07-2022  0948520697                                                                     S         S         S         S         S         S         S                                                           01-01-190001-01-190001-01-190001-01-190001-01-190001-01-190001-01-190001-01-190001-01-190001-01-190001-01-190001-01-190001-01-1900                                                            
4000199085               162776835   ALFONSO ANDRES MADRIAZA ESCOBAR                                                 30-01-1986OMANTONIO VARAS 2537                                                                                                                                              NUNOA                                   NUNOA                                        @                                          974887045       0               974887045       223665521       223665521       223665553       974887045      -341343          4000001-04-2022 5604          0 4444     01-07-2022COR5                               0000000000000000000006-01-2020   70917802-05-2019              0  0  2R07-02-2019         150999          REAGCO       398   276     0    0    316140    0    0    0    0    0    0    0    0    0    0    0 05-01-2020              000000000000000000000  0        0        0  940        00000000000        0                  00000000000        0                  00000000000        0                  00000000000        0                  00000000000        0          S120    1001    VISAF555    REAGCRP6RR841        0   0   0   0   0   3   0   10      3601-07-202209-10-201801-07-2022  0                                                                              S         S         S         S         S         S                                                                     01-01-190001-01-190001-01-190001-01-190001-01-190001-01-190001-01-190001-01-190001-01-190001-01-190001-01-190001-01-190001-01-1900                                                            
4002681836               192979951   LUIS ENRIQUE FRITZ BARRA                                                        29-10-1996OMOHIGGINS SN                                                                     ALERCE HISTORICO ALERCE HISTORICO                                               PUERTO MONTT                            PUERTO MONTT                                 luchonaty96@gmail.com                      969025266       0               969025266       945717928       945717928       965927808       969025266      -456292          4300001-07-2022 5682          0 1444     01-07-2022N315                               0000000000000000000006-09-2019  16949260000000000              0  0  0 0000000000              0          REAGCO       378   276     0    0   1035350    0    0    0    0    0    0    0    0    0    0    0 05-09-2019              000000000000000000000  0        0        0 1062        00000000000        0                  00000000000        0                  00000000000        0                  00000000000        0                  00000000000        0          S120    1001    VISAF666NQ61REAGCNP8N3151        0   0   0   0   0   2   0   10      2601-07-202214-09-201929-06-2022  0996571124    975832108                                                        S         S         S         S         S         S         S         S                                                 01-01-190001-01-190001-01-190001-01-190001-01-190001-01-190001-01-190001-01-190001-01-190001-01-190001-01-190001-01-190001-01-1900                                                            
4002680506               19500868K   ALLYSON IVANIA MATELUNA PEREIRA                                                 27-06-1997OFCUATRO ORIENTE 6350                                                             PISOS 4 5 6 POBLACION JOSE MARIA CARO                                           LO ESPEJO                               LO ESPEJO                          9140708   @                                          956267813       0               956267813       959762727       959762727                                       -25563              00000000000 5612          0 0444     01-07-2022N315                               0000000000000000000006-01-2020   38175311-04-2022              0  0  0P09-04-2022          15131          REAGSTS8     398   276     0    0    216270    0    0    0    0    0    0    0    0    0    0    0 05-01-2020              000000000000000000000  0        0        0  940        00000000000        0                  00000000000        0                  00000000000        0                  00000000000        0                  00000000000        0          S120    FCMA    VISAF444NQ61REAGCNP8N3151        0   0   0   0   0   2   0   10      2521-07-202210-10-201922-07-2022  0                                                                              S         S         S         S                                                                                         01-01-190001-01-190001-01-190001-01-190001-01-190001-01-190001-01-190001-01-190001-01-190001-01-190001-01-190001-01-190001-01-1900                                                            
4000606770               62572701    ALICIA DE LAS MERCEDES MEDINA BRAVO                                             10-07-1948OFSALVADOR GUTIERREZ 5181                                                         casa 3 casa 3                                                                   QUINTA NORMAL                           QUINTA NORMAL                      8510320   asantibanezm@hcuch.cl                      999191464       0               999191464       985159069       985159069       228663496       985159069       -25352          6978015-07-2022 1500          0 4444     01-07-2022N910                               0000000000000000000002-07-2020    2661515-07-2022              0  0  3P15-07-2022          23260          REAGCTPP     398   398     0    1    316310    0    0    0    0    0    0    1    0    0    1    0 01-07-2020              000000000000000000000  0        0        0  762        00000000000        0                  00000000000        0                  00000000000        0                  00000000000        0                  00000000000        0          S200    1001    VISAF111    REAGCRP6RR841        0   0   0   2   0   4   0   10      7429-07-202208-10-201815-07-2022  0227732366                                                                     S         S         S         S         S         S         S                                                           01-01-190001-01-190001-01-190001-01-190001-01-190001-01-190001-01-190001-01-190001-01-190001-01-190001-01-190001-01-190001-01-1900                                                            
4000605267               115557637   NANCY INES GALAZ BUSTAMANTE                                                     22-04-1970OFLA CABANA S/N                                                                                                                                                   LOLOL                                   LOLOL                                        @                                          722941088       0               962480578       722941088       722941088       967163920       983816916      -472226          2780015-07-202215102          0 2444     01-07-2022N300                               0000000000000000000016-08-2020   82319204-10-2020              0  2 10R03-10-2020         830071          REAGSTS8     398   276     0    0    023610    0    0    0    0    0    0    0    0    0    0    0 15-08-2020              000000000000000000000  0        0        0  717        00000000000        0                  00000000000        0                  00000000000        0                  00000000000        0                  00000000000        0          S120            VISAF555FVOPREAGCNP6N3001        0   0   0   0   0   3   0   10      5215-07-202216-10-201816-07-2022  0977340614    722941139                                                        S         S         S         S         S         S         S         S                                                 01-01-190001-01-190001-01-190001-01-190001-01-190001-01-190001-01-190001-01-190001-01-190001-01-190001-01-190001-01-190001-01-1900                                                            
4000505136               257546489   DIMAS JOSE COLINA PACHECO                                                       19-12-1981OMCARMEN 557                                                                      DEPTO 403 DEPTO 403                                                             SANTIAGO                                SANTIAGO                                     DJCP20@HOTMAIL.COM                         995870933       0               957599568       995870933       995870933       995870933                       -45972          5000012-04-20221061           0 0444     01-07-2022COR5                               0000000000000000000011-10-2019   65000007-01-2021              0  0  1R07-01-2021        1411812          REAGDVD7     398   276     0    0    016050    0    0    0    0    0    0    0    0    0    0    0 10-10-2019              000000000000000000000  0        0        0 1027        00000000000        0                  00000000000        0                  00000000000        0                  00000000000        0                  00000000000        0          C300    1001    VISAF555    REAGCNP6N3101        0   0   0   0   0   3   0   10      4015-07-202207-01-202116-07-2022  0             224006176                                                        S         S         S         S         S                             S                                                 01-01-190001-01-190001-01-190001-01-190001-01-190001-01-190001-01-190001-01-190001-01-190001-01-190001-01-190001-01-190001-01-1900                                                            
4000286377               77585885    HECTOR ORLANDO CONTRERAS GUEVARA                                                15-09-1955OMAV. EL ABRA 150                                                                 SECTOR LAS ROSAS SECTOR LAS ROSAS                                               REQUINOA                                REQUINOA                                     HECTOR.CONTRERAS@GMAIL.COM                 983704367       0               983704367       966704907       966704907       981939826                       -27723          3000025-06-20221575           0 4444     01-07-2022RR84                               0000000000000000000016-12-2020   84137225-09-2021              0  4  6C22-09-2021          30250          REAGCO       398   398     0    0    013410    0    0    0    0    0    0    0    0    0    0    0 15-12-2020              000000000000000000000  0        0        0  595        00000000000        0                  00000000000        0                  00000000000        0                  00000000000        0                  00000000000        0          S120    FCM0    VISAF555NQ61REAGCRP6RR841        0   0   0   0   0   3   0   10      6701-07-202220-09-201829-06-2022  0                                                                              S         S         S         S         S                                                                               01-01-190001-01-190001-01-190001-01-190001-01-190001-01-190001-01-190001-01-190001-01-190001-01-190001-01-190001-01-190001-01-1900                                                            
4000104449               19555952K   CECILIA TAMARA BURGOS CONTRERAS                                                 28-10-1997OFAVENIDA ESPANA 610                                                              LAS ANIMAS LAS ANIMAS                                                           VALDIVIA                                VALDIVIA                                     XEXI.28@GMAIL.COM                          969033721       0               969033721       632341148       632341148                       986936545      -673743          2000012-07-2022 593           0 4444     01-07-2022RR66                               0000000000000000000006-05-2019   95191905-02-2021              0  2  0C03-02-2021          19887          REAGCO       398   276     0    0    315100    0    0    0    0    0    0    0    0    0    0    0 05-05-2019              000000000000000000000  0        0        0 1185        00000000000        0                  00000000000        0                  00000000000        0                  00000000000        0                  00000000000        0          S200    1001    VISAF555    REAGCRP6RR661        0   0   0   0   0   3   0   10      2501-07-202213-06-201829-06-2022  0969033721                                                                     S         S         S         S                   S         S                                                           01-01-190001-01-190001-01-190001-01-190001-01-190001-01-190001-01-190001-01-190001-01-190001-01-190001-01-190001-01-190001-01-1900                                                            
4000104422               242023617   SANDRA PATRICIA VIDAL RAMIREZ                                                   10-02-1972OFJUAN BRAVO 7263                                                                 BANDERAS BANDERAS                                                               ANTOFAGASTA                             ANTOFAGASTA                                  SANDRA.VIDAL.549@GMAIL.COM                 954804125       0               954804125       950952002       950952002       985252347                      -326242          2950126-07-2022 522           0 4444     01-07-2022COR5                               0000000000000000000006-08-2019   50122509-07-2021              0  0  7R09-07-2021              2          REAGIND0OT   398   398     0    0    332300    0    0    0    0    0    0    0    0    0    0    0 05-08-2019              000000000000000000000  0        0        0 1093        00000000000        0                  00000000000        0                  00000000000        0                  00000000000        0                  00000000000        0          C300    1001    VISAF555    REAGCRP6RR661        0   0   0   0   0   3   0   10      5027-07-202208-11-201727-07-2022  0                                                                              S         S         S         S         S                                                                               01-01-190001-01-190001-01-190001-01-190001-01-190001-01-190001-01-190001-01-190001-01-190001-01-190001-01-190001-01-190001-01-1900                                                            
4000192973               175318410   KAREN VANESSA CARRILLO CARRASCO                                                 17-04-1990OFQUELLON 98                                                                      PISOS 4-5-6 ENTRE LAGOS, 10                                                     OSORNO                                  OSORNO                             5300000   @                                          948151011       0               948151011       948756292       948756292                                      -232703              00000000000 1806          0 0444     01-07-2022N315                               0000000000000000000002-01-2019   43679116-07-2022              0  0  1P14-07-2022          30000          REAGCTPP     398   276     0    0    525250    0    0    0    0    0    0    0    0    0    0    0 01-01-2019              000000000000000000000  0        0        0 1309        00000000000        0                  00000000000        0                  00000000000        0                  00000000000        0                  00000000000        0          S200    1001    VISAF444    REAGCNP9N3151        0   0   0   0   0   3   0   10      3229-07-2022000000000016-07-2022  0                                                                              S         S         S         S                                                                                         01-01-190001-01-190001-01-190001-01-190001-01-190001-01-190001-01-190001-01-190001-01-190001-01-190001-01-190001-01-190001-01-1900                                                            
4000602585               176343451   MANUEL ALEJANDRO GALARCE HERRERA                                                11-07-1990OMLAS CRUZADAS PARCELA 3                                                          SAN PEDRO SAN PEDRO                                                             QUILLOTA                                QUILLOTA                                     mane_magh-12@hotmail.com                   954539115       0               954539115       999486925       999486925                                      -256979              00000000000 5626          0 4444     01-07-2022N910                               0000000000000000000006-10-2019   59571713-05-2022          30000  0  0P13-05-2022          30000          REAGSTC9     398   276     0    0    243000    0    0    0    0    0    0    1    0    0    1    0 05-10-2019              000000000000000000000  0        0        0 1032        00000000000        0                  00000000000        0                  00000000000        0                  00000000000        0                  00000000000        0          S200    1001    VISAF555NQ61REAGCRP8RR841        0   0   0   0   0   1   0   10      3221-07-202213-05-202222-07-2022  0                                                                              S         S         S         S                                                                                         01-01-190001-01-190001-01-190001-01-190001-01-190001-01-190001-01-190001-01-190001-01-190001-01-190001-01-190001-01-190001-01-1900                                                            
4000989885               199913468   IVAN DRAGO GONZALEZ RIFFO                                                       28-09-1998OMCAMINO INTERNACIONAL SN                                                                                                                                         PANGUIPULLI                             PANGUIPULLI                                  ivan.gonzalez.riffo98@gmail.com            953246210       0               953246210       953246210       953246210                                      -190738              00000000000 591           0 3444     01-07-2022N910                               0000000000000000000006-09-2019   28013307-04-2022          15000  0  3P04-04-2022          15000          REAGCO       398   276     0    0    115170    0    0    0    0    0    0    1    0    0    1    0 05-09-2019              000000000000000000000  0        0        0 1062        00000000000        0                  00000000000        0                  00000000000        0                  00000000000        0                  00000000000        0          S120    1001    VISAF444NQ61REAGCNP9N3151        0   0   0   2   0   1   0   10      2401-07-202201-07-201903-06-2022  0                                                                              S         S         S         S                                                                                         01-01-190001-01-190001-01-190001-01-190001-01-190001-01-190001-01-190001-01-190001-01-190001-01-190001-01-190001-01-190001-01-1900                                                            
4001286705               150519993   FRANCISCO JOSE DIAZ DIAZ                                                        26-01-1982OMALFREDO BERNDT 1712                                                             VILLA COVICO VILLA COVICO                                                       LA SERENA                               LA SERENA                                    argentina_1975@hotmail.com                 942708288       0               942708288       942708288       942708288                                      -251441              00000000000 1165          0 4444     01-07-2022RR84                               0000000000000000000002-02-2020   34618422-04-2022              0  0  2P20-04-2022          11153          REAGCO       398   276     0    1    012500    0    0    0    0    0    0    0    0    0    0    0 01-02-2020              000000000000000000000  0        0        0  913        00000000000        0                  00000000000        0                  00000000000        0                  00000000000        0                  00000000000        0          S120    1001    VISAF444NQ61REAGCRP6RR841        0   0   0   0   0   3   0   10      4001-07-2022000000000003-06-2022  0                                                                              S         S         S         S                                                                                         01-01-190001-01-190001-01-190001-01-190001-01-190001-01-190001-01-190001-01-190001-01-190001-01-190001-01-190001-01-190001-01-1900                                                            
4000717722               193730671   JOSE ALVARO REBOLLEDO RUBILAR                                                   18-04-1997OMLOS ARRIEROS 2295                                                               villa las tranqueras villa las tranqueras                                       LOS ANGELES                             LOS ANGELES                                  josealvarorebolledor@gmail.com             973203319       0               973203319       973203319       973203319                                      -199901          4500013-04-2022 1500          0 3444     01-07-2022COR4                               0000000000000000000002-01-2019   32226514-04-2022              0  1  2P12-04-2022          30000          REAGSTC9     398   398     0    0   1124400    0    0    0    0    0    0    0    0    0    0    0 01-01-2019              000000000000000000000  0        0        0 1309        00000000000        0                  00000000000        0                  00000000000        0                  00000000000        0                  00000000000        0          S200    1001    VISAF444    REAGCNP9N3151        0   0   0   0   0   3   0   10      2513-07-202215-06-201814-07-2022  0                                                                              S         S         S         S                                                                                         01-01-190001-01-190001-01-190001-01-190001-01-190001-01-190001-01-190001-01-190001-01-190001-01-190001-01-190001-01-190001-01-1900                                                            
4000717718               249755605   MUJAHED  A A QABAHA                                                             20-06-1979OMAVENIDA INGLATERRA 1144                                                         DPTO 308 TORRE B 1 DPTO 308 TORRE B 1                                           INDEPENDENCIA                           INDEPENDENCIA                                kabaha.mugahed@gmail.com                   946615530       0               946615530       946615530       946615530                                      -219147          8681409-04-2022 5604          0 3444     01-07-2022COR4                               0000000000000000000006-06-2019   30587912-04-2022              0  2 11P08-04-2022          12402          REAGCO       398   398     0    0    316060    0    0    0    0    0    0    0    0    0    0    0 05-06-2019              000000000000000000000  0        0        0 1154        00000000000        0                  00000000000        0                  00000000000        0                  00000000000        0                  00000000000        0          S131    1001    VISAF444    REAGCNP9N3101        0   0   0   0   0   3   0   10      4301-07-202208-10-201803-06-2022  0                                                                              S         S         S         S                                                                                         01-01-190001-01-190001-01-190001-01-190001-01-190001-01-190001-01-190001-01-190001-01-190001-01-190001-01-190001-01-190001-01-1900                                                            
4001020470               112548084   WILFREDO ALEJANDRO LAGOS HUMERES                                                06-02-1968OMMAPOCHO 7113                                                                                                                                                    CERRO NAVIA                             CERRO NAVIA                                  WILLILAGOS34@GMAIL.COM                     999817005       0               226261836       999817005       999817005       935763795       999817005      -504765          2000013-05-2022 561           0 2444     01-07-2022N910                               0000000000000000000006-01-2020   80365723-06-2020              0  0 11R22-06-2020         447238          REAGSTS3     398   276     0    0    116340    0    0    0    0    0    0    1    0    0    1    0 05-01-2020              000000000000000000000  0        0        0  940        00000000000        0                  00000000000        0                  00000000000        0                  00000000000        0                  00000000000        0          S200            VISAF555NQ61REAGCNP9N3101        0   0   0   0   0   3   0   10      5421-07-202209-10-201822-07-2022  0             227382590                                                        S         S         S         S         S         S                   S                                                 01-01-190001-01-190001-01-190001-01-190001-01-190001-01-190001-01-190001-01-190001-01-190001-01-190001-01-190001-01-190001-01-1900                                                            
4000693079               111765898   FANOR ANTONIO DIAZ GARRIDO                                                      21-06-1967OMRUTA LOS CONQUISTADORES CAM.PURAPEL 0                                           LOCALIDAD FUNDO QUILAU LOCALIDAD FUNDO QUILAU                                   CAUQUENES                               CAUQUENES                                    @                                          962113747       0               988789671       962113747       962113747                                      -726498          4800020-07-202210653          0 1444     01-07-2022COR6                               0000000000000000000011-05-2020  147239612-01-2021              0  3  6R12-01-2021         100000          REAGSTS8     398   398     0    0    144100    0    0    0    0    0    0    0    0    0    0    0 10-05-2020              000000000000000000000  0        0        0  814        00000000000        0                  00000000000        0                  00000000000        0                  00000000000        0                  00000000000        0          S120            VISAF666NQ61REAGCNP6N3101        0   0   0   2   0   3   0   10      5521-07-202211-09-201822-07-2022  0                                                                              S         S         S         S                                                                                         01-01-190001-01-190001-01-190001-01-190001-01-190001-01-190001-01-190001-01-190001-01-190001-01-190001-01-190001-01-190001-01-1900                                                            
4002445127               156856304   LUIS HUMBERTO ASTUDILLO CONTRERAS                                               14-12-1983OMAV GOMEZ CARRENO 2518                                                           CON CERRO DRAGON CON CERRO DRAGON                                               IQUIQUE                                 IQUIQUE                                      astudillocontreras83@gmail.com             999084016       0               999084016       967388611       967388611       572422357       572326549            1              00000000000 5500          0 1444     01-07-2022N910                               0000000000000000000006-02-2020   69905911-02-2022              0  1  2P11-02-2022          69960          REAGCO       398   276     0    0    232100    0    0    0    0    0    0    1    0    0    1    0 05-02-2020              000000000000000000000  0        0        0  909        00000000000        0                  00000000000        0                  00000000000        0                  00000000000        0                  00000000000        0          S120    1001    VISAF555NQ61REAGCNP6N3101        0   0   0   0   0   3   0   10      3801-07-202218-06-201903-06-2022  0                                                                              S         S         S         S         S         S                                                                     01-01-190001-01-190001-01-190001-01-190001-01-190001-01-190001-01-190001-01-190001-01-190001-01-190001-01-190001-01-190001-01-1900                                                            
4000589668               185212114   YASNA VALESKA ALTAMIRANO RODRIGUEZ                                              01-11-1993OFPROVIDENCIA 720                                                                 POBLACION CARRERA, VALLENAR POBLACION CARRERA, VALLENAR                         VALLENAR                                VALLENAR                           1610000   FLACATORODRIGUEZ@GMAIL.COM                 941087219       0               941087219       964369953       964369953                                      -470260              00000000000 1868          0 1444     01-07-2022N315                               0000000000000000000002-07-2019   82861814-06-2022          20000  0  0P14-06-2022          59300          REAGDVDB     398   276     0    0    432450    0    0    0    0    0    0    0    0    0    0    0 01-07-2019              000000000000000000000  0        0        0 1128        00000000000        0                  00000000000        0                  00000000000        0                  00000000000        0                  00000000000        0          S120    1001    VISAF555NQ61REAGCNP8N3151        0   0   0   0   0   1   0   10      2815-07-202221-02-202216-07-2022  0                                                                              S         S         S         S                                                                                         01-01-190001-01-190001-01-190001-01-190001-01-190001-01-190001-01-190001-01-190001-01-190001-01-190001-01-190001-01-190001-01-1900                                                            
4000362590               168739443   JASMIN ELIZABETH TORO MALDONADO                                                 13-01-1988OFLUIS LICHTEINSTEIN 981                                                                                                                                          ANTOFAGASTA                             ANTOFAGASTA                                  morales.carmona.bria@gmail.com             956641432       0               956641432       957012817       957012817       994983134                      -264931          5712416-07-2022 122           0 1444     01-07-2022N315                               0000000000000000000002-02-2020  245628205-08-2019              0  6  9R02-08-2019         126165          REAGCO       398   398     0    0    032300    0    0    0    0    0    0    0    0    0    0    0 01-02-2020              000000000000000000000  0        0        0  913        00000000000        0                  00000000000        0                  00000000000        0                  00000000000        0                  00000000000        0          S120    FCMA    VISAF666NQ61REAGCNP6N3151        0   0   0   2   0   2   0   10      3401-07-202202-10-201823-06-2022  0                                                                              S         S         S         S         S                                                                               01-01-190001-01-190001-01-190001-01-190001-01-190001-01-190001-01-190001-01-190001-01-190001-01-190001-01-190001-01-190001-01-1900                                                            
4000365506               105790449   CARLOS ANTONIO PACHECO AVILA                                                    18-08-1967OMCARLOS CONDELL 1160                                                             DEPTO 37 VILLA LOS HEROES DEPTO 37 VILLA LOS HEROES                             SAN BERNARDO                            SAN BERNARDO                       8051994   KARLOSPAXECOOO@GMAIL.COM                   961770286       0               961770286       965721963       965721963       993489366       265721963       -51980          7500005-07-2022 5171          0 3444     01-07-2022COR6                               0000000000000000000006-02-2021  128191301-04-2021              0  4  8R30-03-2021          78035          REAGCO       398   398     0    0    046500    0    0    0    0    0    0    0    0    0    0    0 05-02-2021              000000000000000000000  0        0        0  543        00000000000        0                  00000000000        0                  00000000000        0                  00000000000        0                  00000000000        0          S120    1001    VISAF666NQ61REAGCNP6N3101        0   0   0   0   0   3   0   10      5501-07-202206-10-201804-06-2022  0225454780    228453839                                                        S         S         S         S         S         S         S         S                                                 01-01-190001-01-190001-01-190001-01-190001-01-190001-01-190001-01-190001-01-190001-01-190001-01-190001-01-190001-01-190001-01-1900                                                            
4000366087               143385574   PABLO ANDRES PINTO LOYOLA                                                       16-07-1976OMRAMON LIBORIO CARBARIO  349                                                     JJ JJ                                                                           SAN BERNARDO                            SAN BERNARDO                       7850000   35.CARO.TERESA@GMAIL.COM                   976989480       0               976989480       993936100       993936100       224590136                      -245802          3500006-07-202225171          0 3444     01-07-2022N910                               0000000000000000000026-08-2020   64458403-05-2019              0  0 10R03-05-2019          64687          REAGCO       398   398     0    0    046500    0    0    0    0    0    0    1    0    0    1    0 25-08-2020              000000000000000000000  0        0        0  707        00000000000        0                  00000000000        0                  00000000000        0                  00000000000        0                  00000000000        0          S200    FCMA    VISAF555NQ61REAGCNP6N3101        0   0   0   0   0   4   0   10      4601-07-202201-08-201816-06-2022  0                                                                              S         S         S         S         S                                                                               01-01-190001-01-190001-01-190001-01-190001-01-190001-01-190001-01-190001-01-190001-01-190001-01-190001-01-190001-01-190001-01-1900                                                            
4002798511               91081253    GUSTAVO ROBINSON ALVAREZ VILLARROEL                                             30-09-1964OM24 PONIENTE 5621                                                                GOMEZ CARRENO GOMEZ CARRENO                                                     VINA DEL MAR                            VINA DEL MAR                                 grav1209@gmail.com                         968220301       0               968220301       968220301       968220301                                       -51231          1692306-07-202220170          0 0444     01-07-2022N310                               0000000000000000000021-12-2019   46356008-10-2019              0  0  1R07-10-2019           1534          REAGCO       398   276     0    0    353110    0    0    0    0    0    0    0    0    0    0    0 20-12-2019              000000000000000000000  0        0        0  956        00000000000        0                  00000000000        0                  00000000000        0                  00000000000        0                  00000000000        0          S201    FCMA    VISAF444NQ61REAGCNP9N3101        0   0   0   0   0   1   0   10      5801-07-2022000000000030-06-2022  0                                                                              S         S         S         S                                                                                         01-01-190001-01-190001-01-190001-01-190001-01-190001-01-190001-01-190001-01-190001-01-190001-01-190001-01-190001-01-190001-01-1900                                                            
4001024261               135068578   CLAUDIA VERONICA KOTHER ALVARADO                                                09-04-1978OFROZAS 1465                                                                      Depto 22 D Depto 22 D                                                           CONCEPCION                              CONCEPCION                                   kotherclaudia@hotmail.com                  946455489       0               946455489       946455489       946455489                                      -137009          4000028-05-2022 1500          0 4444     01-07-2022RR84                               0000000000000000000002-02-2020   34000030-04-2021              0  4  7C28-04-2021          30000          REAGSTS0     398   276     0    0    234550    0    0    0    0    0    0    0    0    0    0    0 01-02-2020              000000000000000000000  0        0        0  913        00000000000        0                  00000000000        0                  00000000000        0                  00000000000        0                  00000000000        0          S200    1001    VISAF444NQ61REAGCRP6RR841        0   0   0   0   0   3   0   10      4414-07-202201-10-201815-07-2022  0                                                                              S         S         S         S                                                                                         01-01-190001-01-190001-01-190001-01-190001-01-190001-01-190001-01-190001-01-190001-01-190001-01-190001-01-190001-01-190001-01-1900                                                            
